{
	"data": {
		"bytecode": {
			"linkReferences": {},
			"object": "60806040525f80553480156011575f80fd5b5061042a8061001f5f395ff3fe608060405234801561000f575f80fd5b506004361061004a575f3560e01c80632a2e13201461004e5780637a38f9eb1461007e578063900bca23146100ae578063a5555df7146100e1575b5f80fd5b61006860048036038101906100639190610230565b6100ff565b6040516100759190610275565b60405180910390f35b61009860048036038101906100939190610230565b610116565b6040516100a59190610275565b60405180910390f35b6100c860048036038101906100c3919061028e565b610141565b6040516100d894939291906102db565b60405180910390f35b6100e96101f4565b6040516100f6919061031e565b60405180910390f35b5f8060028361010e9190610364565b149050919050565b5f8082036101375760015f8082825461012f91906103c1565b925050819055505b5f82149050919050565b5f805f805f8081905550610154866100ff565b8015610165575061016485610116565b5b505f805490505f808190555061017a866100ff565b801561018b575061018a87610116565b5b505f805490505f80819055506101a0876100ff565b806101b057506101af88610116565b5b505f805490505f80819055506101c5896100ff565b806101d557506101d488610116565b5b505f805490508383838397509750975097505050505092959194509250565b5f5481565b5f80fd5b5f819050919050565b61020f816101fd565b8114610219575f80fd5b50565b5f8135905061022a81610206565b92915050565b5f60208284031215610245576102446101f9565b5b5f6102528482850161021c565b91505092915050565b5f8115159050919050565b61026f8161025b565b82525050565b5f6020820190506102885f830184610266565b92915050565b5f80604083850312156102a4576102a36101f9565b5b5f6102b18582860161021c565b92505060206102c28582860161021c565b9150509250929050565b6102d5816101fd565b82525050565b5f6080820190506102ee5f8301876102cc565b6102fb60208301866102cc565b61030860408301856102cc565b61031560608301846102cc565b95945050505050565b5f6020820190506103315f8301846102cc565b92915050565b7f4e487b71000000000000000000000000000000000000000000000000000000005f52601260045260245ffd5b5f61036e826101fd565b9150610379836101fd565b92508261038957610388610337565b5b828206905092915050565b7f4e487b71000000000000000000000000000000000000000000000000000000005f52601160045260245ffd5b5f6103cb826101fd565b91506103d6836101fd565b92508282019050808211156103ee576103ed610394565b5b9291505056fea2646970667358221220ad437bd3549c00c2c18eebd8f3124b6490364264fe5d30c63648d8a46c48151964736f6c634300081a0033",
			"opcodes": "PUSH1 0x80 PUSH1 0x40 MSTORE PUSH0 DUP1 SSTORE CALLVALUE DUP1 ISZERO PUSH1 0x11 JUMPI PUSH0 DUP1 REVERT JUMPDEST POP PUSH2 0x42A DUP1 PUSH2 0x1F PUSH0 CODECOPY PUSH0 RETURN INVALID PUSH1 0x80 PUSH1 0x40 MSTORE CALLVALUE DUP1 ISZERO PUSH2 0xF JUMPI PUSH0 DUP1 REVERT JUMPDEST POP PUSH1 0x4 CALLDATASIZE LT PUSH2 0x4A JUMPI PUSH0 CALLDATALOAD PUSH1 0xE0 SHR DUP1 PUSH4 0x2A2E1320 EQ PUSH2 0x4E JUMPI DUP1 PUSH4 0x7A38F9EB EQ PUSH2 0x7E JUMPI DUP1 PUSH4 0x900BCA23 EQ PUSH2 0xAE JUMPI DUP1 PUSH4 0xA5555DF7 EQ PUSH2 0xE1 JUMPI JUMPDEST PUSH0 DUP1 REVERT JUMPDEST PUSH2 0x68 PUSH1 0x4 DUP1 CALLDATASIZE SUB DUP2 ADD SWAP1 PUSH2 0x63 SWAP2 SWAP1 PUSH2 0x230 JUMP JUMPDEST PUSH2 0xFF JUMP JUMPDEST PUSH1 0x40 MLOAD PUSH2 0x75 SWAP2 SWAP1 PUSH2 0x275 JUMP JUMPDEST PUSH1 0x40 MLOAD DUP1 SWAP2 SUB SWAP1 RETURN JUMPDEST PUSH2 0x98 PUSH1 0x4 DUP1 CALLDATASIZE SUB DUP2 ADD SWAP1 PUSH2 0x93 SWAP2 SWAP1 PUSH2 0x230 JUMP JUMPDEST PUSH2 0x116 JUMP JUMPDEST PUSH1 0x40 MLOAD PUSH2 0xA5 SWAP2 SWAP1 PUSH2 0x275 JUMP JUMPDEST PUSH1 0x40 MLOAD DUP1 SWAP2 SUB SWAP1 RETURN JUMPDEST PUSH2 0xC8 PUSH1 0x4 DUP1 CALLDATASIZE SUB DUP2 ADD SWAP1 PUSH2 0xC3 SWAP2 SWAP1 PUSH2 0x28E JUMP JUMPDEST PUSH2 0x141 JUMP JUMPDEST PUSH1 0x40 MLOAD PUSH2 0xD8 SWAP5 SWAP4 SWAP3 SWAP2 SWAP1 PUSH2 0x2DB JUMP JUMPDEST PUSH1 0x40 MLOAD DUP1 SWAP2 SUB SWAP1 RETURN JUMPDEST PUSH2 0xE9 PUSH2 0x1F4 JUMP JUMPDEST PUSH1 0x40 MLOAD PUSH2 0xF6 SWAP2 SWAP1 PUSH2 0x31E JUMP JUMPDEST PUSH1 0x40 MLOAD DUP1 SWAP2 SUB SWAP1 RETURN JUMPDEST PUSH0 DUP1 PUSH1 0x2 DUP4 PUSH2 0x10E SWAP2 SWAP1 PUSH2 0x364 JUMP JUMPDEST EQ SWAP1 POP SWAP2 SWAP1 POP JUMP JUMPDEST PUSH0 DUP1 DUP3 SUB PUSH2 0x137 JUMPI PUSH1 0x1 PUSH0 DUP1 DUP3 DUP3 SLOAD PUSH2 0x12F SWAP2 SWAP1 PUSH2 0x3C1 JUMP JUMPDEST SWAP3 POP POP DUP2 SWAP1 SSTORE POP JUMPDEST PUSH0 DUP3 EQ SWAP1 POP SWAP2 SWAP1 POP JUMP JUMPDEST PUSH0 DUP1 PUSH0 DUP1 PUSH0 DUP1 DUP2 SWAP1 SSTORE POP PUSH2 0x154 DUP7 PUSH2 0xFF JUMP JUMPDEST DUP1 ISZERO PUSH2 0x165 JUMPI POP PUSH2 0x164 DUP6 PUSH2 0x116 JUMP JUMPDEST JUMPDEST POP PUSH0 DUP1 SLOAD SWAP1 POP PUSH0 DUP1 DUP2 SWAP1 SSTORE POP PUSH2 0x17A DUP7 PUSH2 0xFF JUMP JUMPDEST DUP1 ISZERO PUSH2 0x18B JUMPI POP PUSH2 0x18A DUP8 PUSH2 0x116 JUMP JUMPDEST JUMPDEST POP PUSH0 DUP1 SLOAD SWAP1 POP PUSH0 DUP1 DUP2 SWAP1 SSTORE POP PUSH2 0x1A0 DUP8 PUSH2 0xFF JUMP JUMPDEST DUP1 PUSH2 0x1B0 JUMPI POP PUSH2 0x1AF DUP9 PUSH2 0x116 JUMP JUMPDEST JUMPDEST POP PUSH0 DUP1 SLOAD SWAP1 POP PUSH0 DUP1 DUP2 SWAP1 SSTORE POP PUSH2 0x1C5 DUP10 PUSH2 0xFF JUMP JUMPDEST DUP1 PUSH2 0x1D5 JUMPI POP PUSH2 0x1D4 DUP9 PUSH2 0x116 JUMP JUMPDEST JUMPDEST POP PUSH0 DUP1 SLOAD SWAP1 POP DUP4 DUP4 DUP4 DUP4 SWAP8 POP SWAP8 POP SWAP8 POP SWAP8 POP POP POP POP POP SWAP3 SWAP6 SWAP2 SWAP5 POP SWAP3 POP JUMP JUMPDEST PUSH0 SLOAD DUP2 JUMP JUMPDEST PUSH0 DUP1 REVERT JUMPDEST PUSH0 DUP2 SWAP1 POP SWAP2 SWAP1 POP JUMP JUMPDEST PUSH2 0x20F DUP2 PUSH2 0x1FD JUMP JUMPDEST DUP2 EQ PUSH2 0x219 JUMPI PUSH0 DUP1 REVERT JUMPDEST POP JUMP JUMPDEST PUSH0 DUP2 CALLDATALOAD SWAP1 POP PUSH2 0x22A DUP2 PUSH2 0x206 JUMP JUMPDEST SWAP3 SWAP2 POP POP JUMP JUMPDEST PUSH0 PUSH1 0x20 DUP3 DUP5 SUB SLT ISZERO PUSH2 0x245 JUMPI PUSH2 0x244 PUSH2 0x1F9 JUMP JUMPDEST JUMPDEST PUSH0 PUSH2 0x252 DUP5 DUP3 DUP6 ADD PUSH2 0x21C JUMP JUMPDEST SWAP2 POP POP SWAP3 SWAP2 POP POP JUMP JUMPDEST PUSH0 DUP2 ISZERO ISZERO SWAP1 POP SWAP2 SWAP1 POP JUMP JUMPDEST PUSH2 0x26F DUP2 PUSH2 0x25B JUMP JUMPDEST DUP3 MSTORE POP POP JUMP JUMPDEST PUSH0 PUSH1 0x20 DUP3 ADD SWAP1 POP PUSH2 0x288 PUSH0 DUP4 ADD DUP5 PUSH2 0x266 JUMP JUMPDEST SWAP3 SWAP2 POP POP JUMP JUMPDEST PUSH0 DUP1 PUSH1 0x40 DUP4 DUP6 SUB SLT ISZERO PUSH2 0x2A4 JUMPI PUSH2 0x2A3 PUSH2 0x1F9 JUMP JUMPDEST JUMPDEST PUSH0 PUSH2 0x2B1 DUP6 DUP3 DUP7 ADD PUSH2 0x21C JUMP JUMPDEST SWAP3 POP POP PUSH1 0x20 PUSH2 0x2C2 DUP6 DUP3 DUP7 ADD PUSH2 0x21C JUMP JUMPDEST SWAP2 POP POP SWAP3 POP SWAP3 SWAP1 POP JUMP JUMPDEST PUSH2 0x2D5 DUP2 PUSH2 0x1FD JUMP JUMPDEST DUP3 MSTORE POP POP JUMP JUMPDEST PUSH0 PUSH1 0x80 DUP3 ADD SWAP1 POP PUSH2 0x2EE PUSH0 DUP4 ADD DUP8 PUSH2 0x2CC JUMP JUMPDEST PUSH2 0x2FB PUSH1 0x20 DUP4 ADD DUP7 PUSH2 0x2CC JUMP JUMPDEST PUSH2 0x308 PUSH1 0x40 DUP4 ADD DUP6 PUSH2 0x2CC JUMP JUMPDEST PUSH2 0x315 PUSH1 0x60 DUP4 ADD DUP5 PUSH2 0x2CC JUMP JUMPDEST SWAP6 SWAP5 POP POP POP POP POP JUMP JUMPDEST PUSH0 PUSH1 0x20 DUP3 ADD SWAP1 POP PUSH2 0x331 PUSH0 DUP4 ADD DUP5 PUSH2 0x2CC JUMP JUMPDEST SWAP3 SWAP2 POP POP JUMP JUMPDEST PUSH32 0x4E487B7100000000000000000000000000000000000000000000000000000000 PUSH0 MSTORE PUSH1 0x12 PUSH1 0x4 MSTORE PUSH1 0x24 PUSH0 REVERT JUMPDEST PUSH0 PUSH2 0x36E DUP3 PUSH2 0x1FD JUMP JUMPDEST SWAP2 POP PUSH2 0x379 DUP4 PUSH2 0x1FD JUMP JUMPDEST SWAP3 POP DUP3 PUSH2 0x389 JUMPI PUSH2 0x388 PUSH2 0x337 JUMP JUMPDEST JUMPDEST DUP3 DUP3 MOD SWAP1 POP SWAP3 SWAP2 POP POP JUMP JUMPDEST PUSH32 0x4E487B7100000000000000000000000000000000000000000000000000000000 PUSH0 MSTORE PUSH1 0x11 PUSH1 0x4 MSTORE PUSH1 0x24 PUSH0 REVERT JUMPDEST PUSH0 PUSH2 0x3CB DUP3 PUSH2 0x1FD JUMP JUMPDEST SWAP2 POP PUSH2 0x3D6 DUP4 PUSH2 0x1FD JUMP JUMPDEST SWAP3 POP DUP3 DUP3 ADD SWAP1 POP DUP1 DUP3 GT ISZERO PUSH2 0x3EE JUMPI PUSH2 0x3ED PUSH2 0x394 JUMP JUMPDEST JUMPDEST SWAP3 SWAP2 POP POP JUMP INVALID LOG2 PUSH5 0x6970667358 0x22 SLT KECCAK256 0xAD NUMBER PUSH28 0xD3549C00C2C18EEBD8F3124B6490364264FE5D30C63648D8A46C4815 NOT PUSH5 0x736F6C6343 STOP ADDMOD BYTE STOP CALLER "
		},
		"gasEstimates": {
			"creation": {
				"codeDepositCost": "213200",
				"executionCost": "5260",
				"totalCost": "218460"
			},
			"external": {
				"isEven(uint256)": "infinite",
				"isZero(uint256)": "infinite",
				"testShortCircuit(uint256,uint256)": "infinite",
				"zeroCount()": "2468"
			}
		},
		"methodIdentifiers": {
			"isEven(uint256)": "2a2e1320",
			"isZero(uint256)": "7a38f9eb",
			"testShortCircuit(uint256,uint256)": "900bca23",
			"zeroCount()": "a5555df7"
		}
	},
	"abi": [
		{
			"inputs": [
				{
					"internalType": "uint256",
					"name": "num",
					"type": "uint256"
				}
			],
			"name": "isEven",
			"outputs": [
				{
					"internalType": "bool",
					"name": "",
					"type": "bool"
				}
			],
			"stateMutability": "pure",
			"type": "function"
		},
		{
			"inputs": [
				{
					"internalType": "uint256",
					"name": "num",
					"type": "uint256"
				}
			],
			"name": "isZero",
			"outputs": [
				{
					"internalType": "bool",
					"name": "",
					"type": "bool"
				}
			],
			"stateMutability": "nonpayable",
			"type": "function"
		},
		{
			"inputs": [
				{
					"internalType": "uint256",
					"name": "num1",
					"type": "uint256"
				},
				{
					"internalType": "uint256",
					"name": "num2",
					"type": "uint256"
				}
			],
			"name": "testShortCircuit",
			"outputs": [
				{
					"internalType": "uint256",
					"name": "",
					"type": "uint256"
				},
				{
					"internalType": "uint256",
					"name": "",
					"type": "uint256"
				},
				{
					"internalType": "uint256",
					"name": "",
					"type": "uint256"
				},
				{
					"internalType": "uint256",
					"name": "",
					"type": "uint256"
				}
			],
			"stateMutability": "nonpayable",
			"type": "function"
		},
		{
			"inputs": [],
			"name": "zeroCount",
			"outputs": [
				{
					"internalType": "uint256",
					"name": "",
					"type": "uint256"
				}
			],
			"stateMutability": "view",
			"type": "function"
		}
	]
}